:1000000000308A001928000027308400831300087C
:10001000031918280130F800F701F70B0D28F80B29
:100020000C284A30F700F70B13281628800B0A28F3
:100030000800840183131F308305613083168F000D
:100040000F0803178711193003139900A630980081
:10005000903083129800831603170908C03989006D
:1000600003131F129F1200300317880083128701A9
:10007000880189010313A001A1018316871087124B
:10008000071283128714871607160230A600FA306B
:10009000A7000420A60B47288710871207120230FA
:1000A000A600FA30A7000420A60B512842286300BE
:04400E00E52CFF3F5F
:00000001FF
;PIC16F887
;CRC=8627  CREATED="12-feb.-20 14:18"
